:020000040800F2
:10000000000002206D2C00085D270008FD0200089A
:10001000652700086D27000875270008000000000C
:10002000000000000000000000000000BD2C0008DF
:100030007D270008000000003F020008512B000847
:10004000BD2C0008BD2C0008BD2C0008BD2C0008EC
:10005000BD2C0008BD2C0008BD2C0008BD2C0008DC
:10006000BD2C0008BD2C0008BD2C0008BD2C0008CC
:10007000BD2C0008BD2C0008BD2C0008BD2C0008BC
:10008000BD2C0008BD2C0008BD2C0008BD2C0008AC
:10009000BD2C0008BD2C0008BD2C0008BD2C00089C
:1000A000BD2C0008BD2C0008BD2C0008BD2C00088C
:1000B000BD2C0008BD2C0008BD2C0008BD2C00087C
:1000C000BD2C0008BD2C0008BD2C0008BD2C00086C
:1000D000BD2C0008BD2C0008BD2C0008BD2C00085C
:1000E000BD2C0008BD2C0008BD2C0008BD2C00084C
:1000F000BD2C0008BD2C0008BD2C0008BD2C00083C
:10010000BD2C0008BD2C0008BD2C0008BD2C00082B
:10011000BD2C0008BD2C0008BD2C0008BD2C00081B
:10012000BD2C0008BD2C0008BD2C0008BD2C00080B
:10013000BD2C0008BD2C0008BD2C0008BD2C0008FB
:10014000BD2C0008BD2C0008BD2C0008BD2C0008EB
:10015000BD2C0008BD2C0008BD2C0008BD2C0008DB
:10016000BD2C0008BD2C0008BD2C0008BD2C0008CB
:10017000BD2C0008BD2C0008BD2C000800000000AC
:08018000BD2C0008BD2C000895
:100188000348044B834202D0034B03B1184770471E
:100198004C0000204C000020000000000548064BE1
:1001A8001B1AD90F01EBA301491002D0034B03B16D
:1001B800184770474C0000204C0000200000000049
:1001C80010B5064C237843B9FFF7DAFF044B13B197
:1001D8000448AFF300800123237010BD50000020B5
:1001E80000000000C02C000808B5044B1BB10449EE
:1001F8000448AFF30080BDE80840CFE700000000E6
:1002080054000020C02C0008EFF3108072B670472D
:1002180080F310887047464A1368012B04D04FF0CA
:1002280001031360434A1060434A116043484FF08A
:10023800805101607047EFF3108272B63C48016844
:1002480051B34FF0000101603A48016891B1EFF3F2
:1002580009811EF0100F08BF21ED108B21E9F00F66
:100268004FF000041EF0100F08BF012441F8044DA0
:100278000068016030490968096808C9B1E8F00FE9
:10028800002B18BFB1EC108B81F309884EF0100ECB
:10029800002B18BF2EF0100E82F310884EF0040EBB
:1002A800704725490860EFF3148222F0040282F3B4
:1002B800148820494FF0000008601D494FF00100E4
:1002C80008601F481F49D0F8002041EA0201016078
:1002D8001A484FF0805101601B480068006800BF51
:1002E80080F3088861B662B6BFF34F8FBFF36F8F94
:1002F800704700BFEFF308801EF0040F01D0EFF342
:10030800098020E9F00F40F804ED40F804ED1EF0F4
:10031800040F02D080F3098801E080F3088800B553
:1003280002F0D8F85DF804EB4EF0040E70470000B8
:1003380010140020081400200C14002004ED00E024
:1003480020ED00E00000FFFF08ED00E070B50F4B66
:100358000F4DAB42A3EB050607D0B610002455F8A5
:10036800043B01349847A642F9D802F0A5FC094D90
:10037800094B5E1BAB424FEAA60606D0002455F88F
:10038800043B01349847A642F9D870BD24340008CC
:10039800243400082434000828340008830730B5C2
:1003A80047D0541E002A3ED0CAB2034601E0013CA1
:1003B80039D303F8012B9D07F9D1032C2CD9CDB2E1
:1003C80005EB05250F2C05EB054535D9A4F11002E1
:1003D80022F00F0C03F1100EE6444FEA121C1A46E5
:1003E800C2E90055C2E9025510327245F8D10CF144
:1003F800010214F00C0F03EB021204F00F0C13D0DF
:10040800ACF1040323F003030433134442F8045B00
:100418009342FBD10CF003042CB1C9B21C4403F87D
:10042800011BA342FBD130BD64461346002CF4D116
:10043800F9E703461446C0E71A46A446E0E700BFBA
:1004480080B400AF034B1B681846BD465DF8047BBB
:10045800704700BF6C00002080B582B000AFFFF786
:10046800D3FE7860164B1B680133154A136001F000
:1004780021FB38603B681B6C5A1E3B681A643B685A
:100488001B6C002B12D13B68DA6B3B681A643B6823
:1004980093F8343043F00803DAB23B6883F8342029
:1004A8007868FFF7B5FE01F095F802E07868FFF785
:1004B800AFFE01F0D7FD00BF0837BD4680BD00BFC5
:1004C8006C00002080B485B000AF78607B68002B9A
:1004D80003DA4FF0FF33FB6027E07B68164A82FBA4
:1004E80003129211DB17D31A4FF47A7202FB03F34B
:1004F800FB607A68104B83FB02139911D317CB1A50
:100508004FF47A7101FB03F3D31A4FF47A7202FBAA
:1005180003F303F2E733084A82FB03129211DB1755
:10052800D31A1A46FB681344FB60FB681846143755
:10053800BD465DF8047B7047D34D621080B400AFB0
:1005480000231846BD465DF8047B704780B400AFB1
:1005580000231846BD465DF8047B704780B400AFA1
:1005680000231846BD465DF8047B704780B582B00D
:1005780000AF094B7B6005E07B681B6898477B6888
:1005880004337B607B68054A9342F5D300BF00BF04
:100598000837BD4680BD00BF183400081C34000869
:1005A80080B582B000AF094B7B6005E07B681B68B3
:1005B80098477B6804337B607B68054A9342F5D390
:1005C80000BF00BF0837BD4680BD00BF1C3400080F
:1005D8002034000880B500AF00F034F80023184636
:1005E80080BD80B582B000AF7860FFF7D9FF02F018
:1005F80031FB00BF0837BD4680BD000080B586B01E
:1006080004AF0C4B7B60142303930A2302934FF42B
:1006180080530193084B00930023084A08497868DF
:1006280001F028FA3860786801F050FA00BF0837FE
:10063800BD4680BD7010002070000020EB0500084A
:10064800D82C000880B500AFFFF7DEFD02F086FA6F
:1006580000F0CEF901F076FD00F07AFFFFF7CEFF4B
:1006680001F08AFD00F096F800F096FF0023184686
:1006780080BD80B483B000AF786039607B681B6848
:100688003A685A607B681A683B681A607B683A68FF
:100698001A603B687A685A6000BF0C37BD465DF83F
:1006A800047B704780B483B000AF78607B681B68B8
:1006B8007A6852685A607B685B687A6812681A6060
:1006C8007B687A685A607B685A687B681A6000BFE2
:1006D8000C37BD465DF8047B7047000080B582B0DA
:1006E80000AF78607B68143319460348FFF7C1FFF1
:1006F80000BF0837BD4680BD0000002080B584B02B
:1007080000AF0023FB600D4BBB60BB681B68BA6879
:100718009A420ED0BB681B68143BFB60FFF774FD60
:100728007860FB6814331846FFF7BCFF7868FFF75A
:100738006FFDFB6818461037BD4680BD00000020DD
:1007480080B584B000AFFFF7D9FFF860FB68002BD5
:1007580013D0FB681B6FBB60F86800F058FE786028
:100768007B68012B02D1F86800F03BFEBB68002BC8
:10077800E9D0BB68F8689847E5E700BF00BF1037C5
:10078800BD4680BD80B582B000AF7860FFF7D8FF66
:10079800FCE7000080B588B004AF0023FB6029E0C7
:1007A8003B1DFA681749184600F006FDFA6813461B
:1007B8001B019B1ADB00144A9818FB68DB01134ADB
:1007C8001344391D202203921F2202928022019293
:1007D800009300230E4A01F04DF9FA6813461B01F5
:1007E8009B1ADB00084A1344184601F06FF9FB68AE
:1007F8000133FB60FB68002BD2D000BF00BF10376D
:10080800BD4680BDE02C0008E810002060110020E3
:100818008D07000880B582B000AFFFF7F5FC78605F
:10082800064B1B78DBB20133DAB2044B1A707868D6
:10083800FFF7EEFC00BF0837BD4680BDE011002081
:1008480080B582B000AFFFF7DFFC7860064B1B78FD
:10085800DBB2013BDAB2044B1A707868FFF7D8FCB8
:1008680000BF0837BD4680BDE011002080B582B0CA
:1008780000AFFFF7C9FC7860054B1B78FB70786800
:10088800FFF7C6FCFB7818460837BD4680BD00BF99
:10089800E011002080B584B000AF7860FFF7E6FF74
:1008A8000346002B03D00A4A7B6813600CE001F072
:1008B80001F9F860FB68002B03D1054A7B681360D7
:1008C80002E0FB687A681A631037BD4680BD00BF36
:1008D800E411002080B489B000AFF860B9607A6094
:1008E800FB68FB61BB68DBB27B617B68032B40D98B
:1008F800FB6803F00303002B3BD1FB68BB617B69FA
:100908001B027A6913433B613B691B043A69134331
:100918003B6116E0BB691A1DBA613A691A60BB6986
:100928001A1DBA613A691A60BB691A1DBA613A6937
:100938001A60BB691A1DBA613A691A607B68103B74
:100948007B607B680F2BE5D807E0BB691A1DBA618D
:100958003A691A607B68043B7B607B68032BF4D898
:10096800BB69FB6105E0FB695A1CFA617A69D2B27E
:100978001A707B685A1E7A60002BF4D1FB681846FF
:100988002437BD465DF8047B704780B487B000AF5C
:10099800F860B9607A607B68002B21D0FB687B61C6
:1009A800BB683B613A69531C3B617B69591C79619F
:1009B80012781A701B78002B0CD104E07B695A1C42
:1009C8007A6100221A707B68013B7B607B68002B90
:1009D800F4D105E07B68013B7B607B68002BE1D1AB
:1009E800FB6818461C37BD465DF8047B704700005D
:1009F80080B582B002AF0B4800F0F4FB0A4800F063
:100A0800F1FB0A4B01930A4B0093012301220421B5
:100A1800084800F0E7FB084800F0E4FB00BFBD46CB
:100A280080BD00BF402D00084C2D0008902D000807
:100A38009C2D00086C2D0008A82D000880B485B0F6
:100A480000AF786039603B680A2B17D17B681B6858
:100A58001946134BA3FB0123DA0813469B001344E2
:100A68005B00CA1AFA607B681B681A460C4BA3FB2A
:100A78000223DB081A467B681A600AE07B681B6859
:100A880003F00F03FB607B681B681B091A467B6831
:100A98001A60FB6818461437BD465DF8047B70473A
:100AA800CDCCCCCC80B485B000AF78600023FB609F
:100AB8000EE0FA6813469B0013445B0018467B68F7
:100AC8001B68591C7A6811601B780344303BFB6033
:100AD8007B681B681B78303B092BEAD9FB681846F2
:100AE8001437BD465DF8047B7047000080B58EB0B2
:100AF80000AFF860B9607A603B607B6CBB623B6CAE
:100B0800FB62BB6C03F04003002B01D0744B00E088
:100B1800744B7B62BB6C03F01003002B03D0BB6CDF
:100B280023F00103BB64BB6C03F00103002B01D06D
:100B3800302300E0202387F82330002387F837305C
:100B4800BB6C03F00203002B1AD07B68002B06DA7B
:100B58002D2387F837307B685B427B6010E0BB6CE5
:100B680003F00403002B03D02B2387F8373007E06A
:100B7800BB6C03F00803002B02D0202387F8373022
:100B880000233B637B68002B19D13B6B5A1C3A63EB
:100B980038333B44302203F8282C13E03B1D3968D6
:100BA8001846FFF74BFF03461A467B6A1A443B6B0D
:100BB800591C3963127838333B4403F8282C7B6876
:100BC800002BEBD13A6B7B6C9A4201DD3B6B7B646B
:100BD800FA6A7B6CD31AFB62BB6C03F01103002B1F
:100BE80019D197F83730002B10D0FB6A002B0DDD98
:100BF800FB6A013BFB6209E0FA68BB689A4202D2D1
:100C0800FB6820221A70FB680133FB60FB6A5A1EDE
:100C1800FA62002BF0DC97F83730002B0DD0FA6819
:100C2800BB689A4203D2FB6897F837201A70FB6AB0
:100C3800013BFB62FB680133FB60BB6C03F01003F4
:100C4800002B1BD10AE0FA68BB689A4203D2FB6802
:100C580097F823201A70FB680133FB60FB6A5A1E61
:100C6800FA62002BEFDC09E0FA68BB689A4202D20C
:100C7800FB6830221A70FB680133FB607B6C5A1EDC
:100C88007A643A6B9A42EFDB0DE0FA68BB689A42E5
:100C980006D207F110023B6B13441A78FB681A70EE
:100CA800FB680133FB603B6B5A1E3A63002B0DDD7A
:100CB800BB6A002BE9D109E0FA68BB689A4202D204
:100CC800FB6820221A70FB680133FB60FB6A5A1E1E
:100CD800FA62002BF0DCFB6818463837BD4680BD49
:100CE800E0330008F433000880B592B004AFF86030
:100CF800B9607A603B60FB68BB62FA68BB68134402
:100D08007B627A6AFB689A4280F026824FF0FF3352
:100D18007B627A6AFB68D31ABB601DE27B681B782A
:100D2800252B0BD0BA6A7B6A9A4203D27B681A7861
:100D3800BB6A1A70BB6A0133BB620AE20023BB7745
:100D48007B6801337B607B681B782D2B04D1BB7FCC
:100D580043F01003BB77F3E77B681B782B2B04D198
:100D6800BB7F43F00403BB77EAE77B681B78202B43
:100D780004D1BB7F43F00803BB77E1E77B681B78AE
:100D8800232B04D1BB7F43F02003BB77D8E77B68D4
:100D98001B78302B04D1BB7F43F00103BB77CFE72F
:100DA80000BF4FF0FF33BB617B681B78303B092BDA
:100DB80005D83B1D1846FFF775FEB86115E07B683E
:100DC8001B782A2B11D17B6801337B603B681A1D85
:100DD8003A601B68BB61BB69002B06DABB695B42E2
:100DE800BB61BB7F43F01003BB774FF0FF337B61E0
:100DF8007B681B782E2B1ED17B6801337B607B6858
:100E08001B78303B092B05D83B1D1846FFF74AFED7
:100E180078610BE07B681B782A2B07D17B6801334C
:100E28007B603B681A1D3A601B687B617B69002BFD
:100E380001DA00237B6100237B777B681B78682BB2
:100E480003D07B681B786C2B05D17B681B787B777C
:100E58007B6801337B600A23FB777B681B78252B33
:100E680000F00881252BC0F21F81782B00F31C812C
:100E7800582BC0F21981583B202B00F2158101A292
:100E880052F823F099100008B1100008B1100008BA
:100E9800B1100008B1100008B1100008B110000826
:100EA800B1100008B1100008B1100008B110000816
:100EB800110F0008A7100008B1100008B1100008B1
:100EC800B1100008B1100008A7100008B110000800
:100ED800B1100008B1100008B1100008B1100008E6
:100EE8009310000845100008B1100008B110000860
:100EF8007F0F0008B1100008ED100008B1100008BD
:100F0800B1100008A1100008BB7F03F01003002BEC
:100F180010D109E0BA6A7B6A9A4202D2BB6A2022DF
:100F28001A70BB6A0133BB62BB69013BBB61BB6919
:100F3800002BEFDC3B681A1D3A601B68FB74BA6A29
:100F48007B6A9A4202D2BB6AFA7C1A70BB6A013386
:100F5800BB6209E0BA6A7B6A9A4202D2BB6A202263
:100F68001A70BB6A0133BB62BB69013BBB61BB69D9
:100F7800002BEFDCEDE03B681A1D3A601B683B6212
:100F88003B6A002B01D1824B3B620023FB6202E0EB
:100F9800FB6A0133FB62FA6ABB699A4205D0FB6AB5
:100FA8003A6A13441B78002BF2D17B69002B05DDCC
:100FB800FA6A7B699A4201DD7B69FB62BB7F03F0B9
:100FC8001003002B10D109E0BA6A7B6A9A4202D258
:100FD800BB6A20221A70BB6A0133BB62BB695A1E06
:100FE800BA61FA6A9A42EFDB00233B6310E0BA6AFF
:100FF8007B6A9A4203D23B6A1A78BB6A1A70BB6A48
:101008000133BB623B6A01333B623B6B01333B6399
:101018003A6BFB6A9A42EADB09E0BA6A7B6A9A424F
:1010280002D2BB6A20221A70BB6A0133BB62BB6959
:101038005A1EBA61FA6A9A42EFDB8AE0BB69B3F1D9
:10104800FF3F05D10823BB61BB7F43F00103BB779A
:101058003B681A1D3A601B681A46BB7F02937B697E
:101068000193BB6900931023796AB86AFFF73EFDC4
:10107800B8626EE0BA6A7B6A9A4202D2BB6A2522DB
:101088001A70BB6A0133BB6263E00823FB772AE06E
:10109800BB7F43F04003BB771023FB7723E0BB7F84
:1010A80043F00203BB771DE0BA6A7B6A9A4202D218
:1010B800BB6A25221A70BB6A0133BB627B681B7846
:1010C800002B0BD0BA6A7B6A9A4203D27B681A78E3
:1010D800BB6A1A70BB6A0133BB623AE07B68013BAA
:1010E8007B6036E000BF7B7F6C2B09D13B681A1D03
:1010F8003A601B687B63BB7F03F00203002B1AE096
:101108007B7F682B0ED13B681A1D3A601B689BB227
:101118007B63BB7F03F00203002B0CD07B6B1BB2FD
:101128007B6308E03B681A1D3A601B687B63BB7FE2
:1011380003F00203002B7A6BF97FBB7F02937B6974
:101148000193BB6900930B46796AB86AFFF7CEFC36
:10115800B8627B6801337B607B681B78002B7FF467
:10116800DDADBB68002B0BD0BA6A7B6A9A4203D20A
:10117800BB6A00221A7003E07B6A013B00221A70E6
:10118800BA6AFB68D31A18463837BD4680BD00BF17
:10119800D42D000880B584B000AFF860B9607A60DB
:1011A8007B68BA684FF0FF31F868FFF79DFD03468A
:1011B80018461037BD4680BD0EB480B585B000AF67
:1011C800786007F12003BB60BA68F9697868FFF7AF
:1011D800E1FFF860FB6818461437BD46BDE880405B
:1011E80003B070470FB480B582B000AF07F11403A5
:1011F8003B603B683A69FF211048FFF775FD0346DD
:101208007B607B68FF2B01D9FF237B600C4B1B683D
:10121800002B03D1094801F0C6FC06E0084B18680A
:101228007B68064A002101F015FA7B6818460837E2
:10123800BD46BDE8804004B0704700BFEC110020F7
:10124800E811002080B483B000AF78607B68002B81
:1012580001D1002326E07B68DBB2002B05D07B6838
:10126800DBB2134AD35C01331CE07B6803F47F4391
:10127800002B06D07B681B12DBB20D4AD35C093306
:1012880010E07B6803F47F03002B06D07B681B14F7
:10129800DBB2074AD35C113304E07B681B0E044AB7
:1012A800D35C193318460C37BD465DF8047B70478C
:1012B800E032000880B483B000AF786039607B68A2
:1012C8001B683A685A607B681A683B681A607B68D2
:1012D8003A681A603B687A685A6000BF0C37BD46A6
:1012E8005DF8047B704780B483B000AF78607B689A
:1012F8001B687A6852685A607B685B687A6812680B
:101308001A607B687A685A607B685A687B681A60DA
:1013180000BF0C37BD465DF8047B704780B485B0CC
:1013280000AF0346FB710023FB600FE00C4AFB682B
:101338001B0113441B78FA799A4204D1FB681B01FC
:10134800074A134406E0FB680133FB60FB68032B84
:10135800ECDD002318461437BD465DF8047B704762
:101368000800002080B588B000AFF8600B467A60AE
:10137800FB720023FB61FB7A1846FFF7CFFFB861C9
:1013880000F068FABB695B68FB6105E0FB690C3B30
:101398003B61FB691B68FB61BB690433FA699A42CC
:1013A800F4D100F06FFAFB7A63F07F03DAB2FB68DE
:1013B8001A72FB68082279681846FFF7E6FAFEF702
:1013C80023FF7861BB691A1DFB680C331946104668
:1013D800FFF770FF7869FEF71BFF00BF2037BD4697
:1013E80080BD80B584B000AF78607B6800221A7237
:1013F800FEF70AFFF8607B680C331846FFF773FFA7
:10140800F868FEF705FF00BF1037BD4680BD80B401
:1014180083B000AF78607B681B7A5BB2002B01DA7F
:10142800012300E0002318460C37BD465DF8047B15
:10143800704780B483B000AF78607B687A685A6080
:101448007B685A687B681A6000BF0C37BD465DF838
:10145800047B704780B483B000AF786039607B68E4
:101468001B683A685A607B681A683B681A607B6830
:101478003A681A603B687A685A6000BF0C37BD4604
:101488005DF8047B704780B483B000AF7860396042
:101498007B685B683A681A607B685A683B685A6080
:1014A8007B683A685A603B687A681A6000BF0C37F4
:1014B800BD465DF8047B704780B483B000AF7860A8
:1014C8007B681B687A6852685A607B685B687A68D0
:1014D80012681A607B687A685A607B685A687B6809
:1014E8001A6000BF0C37BD465DF8047B704780B4B6
:1014F80083B000AF78607B681B687A689A420CBF3B
:1015080001230023DBB218460C37BD465DF8047B87
:101518007047000080B584B000AF78600A4B1B6844
:101528001846FFF78FFE0346013BFB60074AFB683E
:1015380052F83330143BBB607B68FA681A60BB68AA
:1015480018461037BD4680BDEC130020EC12002071
:1015580080B582B000AF0D4B00221A8000237B605B
:1015680009E07B68DB000A4A13441846FFF761FF6D
:101578007B6801337B607B681F2BF2DD054B002203
:101588001A6000BF0837BD4680BD00BFF0130020B9
:10159800EC120020EC13002080B582B000AF3B466F
:1015A8001846FFF7B7FF7860094A7B6813607868C8
:1015B80000F024F97B68032283F834207B681C330D
:1015C8001846FEF76EFE00BF0837BD4680BD00BF57
:1015D800F413002080B586B000AFFEF715FEF86062
:1015E800524BB3F90030002B40F09880504B1B68E9
:1015F800002B00F0938000233B613B1D1846FFF74A
:1016080089FF78614B4B1B6893F8343003F007036C
:10161800032B2CD1474B1B6893F835301A467B684F
:101628009A4203D2434B1B687B6115E0414B1B6810
:1016380093F835301A467B689A420BD13D4B1B68AC
:1016480093F8343003F00803002B03D1394B1B689F
:101658007B6101E001233B61364B1B6893F8342022
:10166800344B1B6822F00802D2B283F83420314B85
:101678001B687A699A423CD07B68DAB22E4B1A70A2
:101688002C4B1B68BB602B4A7B6913603B69002BA2
:1016980002D0B86800F054F8786900F0AFF87B69B8
:1016A80093F834305BB223F007035BB243F00303D3
:1016B8005BB2DAB27B6983F83420204B1B78DBB24B
:1016C800002B0CD1BB681C331A467B691C331946A6
:1016D8001046FEF7A0FDF868FEF79AFD22E0BB6809
:1016E8001C331A467B691C3319461046FEF793FDD6
:1016F80014E0104B1B68184600F080F80D4B1B686F
:1017080093F834305BB223F007035BB243F0030372
:101718005AB2084B1B68D2B283F83420F868FEF737
:1017280077FD00BF1837BD4680BD00BFF01300200D
:10173800EC130020F4130020F8130020E01100201F
:1017480080B584B000AF7860FEF75EFDF860284B86
:101758001B687A689A420ED17B6893F834305BB282
:1017680023F007035BB243F003035BB2DAB27B6892
:1017780083F8342034E07B6893F834305BB223F08C
:1017880007035BB243F001035BB2DAB27B6883F80C
:1017980034207B6893F8343003F00803002B0CD016
:1017A8007B6893F83530DB00124A1A447B6814339F
:1017B80019461046FFF767FE0BE07B6893F8353053
:1017C800DB000C4A1A447B68143319461046FFF7AD
:1017D80041FE7B689A6B084B1B681343064A1360EB
:1017E800F868FEF715FD00BF1037BD4680BD00BF85
:1017F800F4130020EC120020EC13002080B584B014
:1018080000AF7860FEF700FDF8607B681433184677
:10181800FFF752FE7B6893F83530DB000B4A134420
:101828001846FFF764FE0346002B07D07B689B6BC6
:10183800DA43074B1B681340054A1360F868FEF744
:10184800E7FC00BF1037BD4680BD00BFEC1200208A
:10185800EC13002080B582B000AFFEF7D5FC7860AD
:10186800074BB3F900309BB201339BB21AB2044B59
:101878001A807868FEF7CCFC00BF0837BD4680BDEB
:10188800F013002080B582B000AFFEF7BDFC786091
:10189800104BB3F900309BB2013B9BB21AB20D4B0F
:1018A8001A800C4BB3F90030002B0CDC094B0022DA
:1018B8001A807868FEF7ACFC074B1B68002B05D034
:1018C800FFF788FE02E07868FEF7A2FC00BF083741
:1018D800BD4680BDF0130020F413002080B483B00F
:1018E80000AF78607B687A685A607B685A687B6862
:1018F8001A6000BF0C37BD465DF8047B704780B4A2
:1019080083B000AF78607B681B687A6852685A6059
:101918007B685B687A6812681A607B687A685A60C4
:101928007B685A687B681A6000BF0C37BD465DF853
:10193800047B704780B582B000AF00F0BBF87860D8
:10194800FEF762FC38607868FFF758FF7B6844331D
:10195800184600F034FA7B68042283F8342078684B
:10196800FEF7BCFE3868FEF753FCFFF733FE00BFF6
:101978000837BD4680BD80B584B000AF78607B680D
:10198800FB60FEF741FCB860FB686FF001021A6368
:10199800FB6814331846FFF7B2FFF868FFF7D0FE6C
:1019A800B868FEF735FCFFF715FE00BF1037BD46D7
:1019B80080BD000080B586B002AFF860B9607A607B
:1019C8003B60FB6814331846FFF788FFFB687A68AA
:1019D8001A62FB683A685A62FB68BA699A62FB68DD
:1019E800FA69DA62FB68986AFB68DB6A1A4623219F
:1019F800FEF770FFFB68186AFB68596AFB689A6A09
:101A0800FB68DB6A043B1A44184B00F0BDFB024636
:101A1800FB68DA61FB6897F8202083F83520FB68BB
:101A280000229A63FB687A6ADA63FB687A6A1A6446
:101A3800FB6800221A63FB68002283F83420FB68E5
:101A480000221A67FB6800225A67FB6803F144000A
:101A5800F9680023019300230093FB68044A00F00F
:101A680095F9002318461037BD4680BD3D1900087A
:101A78007F19000880B588B004AFF860B9607A6053
:101A88003B60BA680121F868FFF76CFC7B6A039336
:101A980097F820300293FB690193BB6900933B6878
:101AA8007A68B968F868FFF785FF03461846103763
:101AB800BD4680BD80B400AF034B1B681846BD46C9
:101AC8005DF8047B704700BFF413002080B582B036
:101AD80000AF78607B6893F835301A46012393404D
:101AE8001A467B689A637B68022283F834207868F8
:101AF80000F07FF8FFF7DEFF0346002B01D0FFF769
:101B080069FD002318460837BD4680BD80B584B0FE
:101B180000AF7860FFF7CEFFF860FEF775FBB8609E
:101B2800FB6800221A63F86800F02FF8FB6844335A
:101B38003A1D0021184600F043FAFB684433184662
:101B480000F05AF9B868FEF763FBFFF743FDFB683E
:101B58001B6B13F1020F02D1FB6800221A63FB68AA
:101B68001B6B18461037BD4680BD80B584B000AFEA
:101B780078607868FEF7A6FCF860F868FFF7C6FF9B
:101B8800034618461037BD4680BD80B584B000AF07
:101B980078607B6893F8343003F00703FB60FB68D8
:101BA800012B05D0FB68032B02D04FF0FF331CE05C
:101BB800FEF72AFBB8607868FFF720FE7B6893F889
:101BC80034305BB223F007035BB243F002035BB22D
:101BD800DAB27B6883F834207B684433184600F017
:101BE800CDF9B868FEF714FB002318461037BD4638
:101BF80080BD80B584B000AF78607B6893F83430DE
:101C080003F00703022B02D04FF0FF3313E0FEF777
:101C1800FBFAF8607B6814331846FFF770FE7B68A0
:101C28004433184600F0AAF97868FFF789FDF86888
:101C3800FEF7EEFA002318461037BD4680BD80B483
:101C480083B000AF78607B687A685A607B685A68AE
:101C58007B681A6000BF0C37BD465DF8047B70478F
:101C680080B483B000AF786039607B681B683A68DD
:101C78005A607B681A683B681A607B683A681A6021
:101C88003B687A685A6000BF0C37BD465DF8047B34
:101C9800704780B483B000AF78607B681B687A684F
:101CA80052685A607B685B687A6812681A607B6859
:101CB8007A685A607B685A687B681A6000BF0C377C
:101CC800BD465DF8047B704780B483B000AF786090
:101CD8007B681B687A689A420CBF01230023DBB239
:101CE80018460C37BD465DF8047B704780B586B052
:101CF80000AFF860B9607A603B60FB6897F8202015
:101D08005A72FB685B7A23F00103DAB2FB685A72F5
:101D1800FB68BA68DA61FB687A681A62FB680022B5
:101D28009A62FB683A685A6200237B610BE07B6920
:101D38000233DB00FA68134404331846FFF77FFFC9
:101D48007B6901337B617B69002BF0DD00BF00BF3D
:101D58001837BD4680BD80B584B000AF78600023D9
:101D6800FB600BE0FB680233DB007A681344043342
:101D78001846FFF78EFFFB680133FB60FB68002BFA
:101D8800F0DD00BF00BF1037BD4680BD80B586B00E
:101D980002AFF860B9607A603B60FB68BA680A21F4
:101DA8001846FFF7DFFA3B7F0093BB693A6879680A
:101DB800F868FFF79BFF00BF1037BD4680BD80B5B0
:101DC80084B000AF7860FEF71FFAF8607868FFF714
:101DD800C2FF7B685B7A23F00103DAB27B685A7230
:101DE800F868FEF715FA7B681846FFF7FAFA002339
:101DF80018461037BD4680BD80B58AB000AF786000
:101E08000023FB61FEF700FAB8617868FFF7A3FFCB
:101E18007B685B7A23F00103DAB27B685A72FEF7BB
:101E28000FFB02467B685B6A1A447B689A62514BD7
:101E38007B617B69BB6000237B624FE07B6A9B0010
:101E480028333B4453F8203C1B683B617B6ADB002A
:101E580014335B423A691344FB60FB689A6A7B68F7
:101E68009B6A9A4209D0FB689A6A7B689B6AD31A74
:101E78006FF0004293421CD300E000BF7B6A9B00D6
:101E880028333B4453F8203C1A687B6A9B0028336C
:101E98003B4443F8202C7B6A9B0028333B4453F88F
:101EA800202C7B6ADB0079690B445B689A42C5D1B8
:101EB80000E000BF7B6A002B0DD07B6A9B002833B3
:101EC8003B4453F8202C7B6A013308329B002833AB
:101ED8003B4443F8202C7B6A01337B627B6A002BEE
:101EE800D9D0254B1B680133234A1360224B1B684A
:101EF8003B62BA687B68143319461046FFF7B0FE98
:101F080002237B621DE03B6A03F00303002B1CD114
:101F18007B6AC3F101039B0028333B4453F8200C30
:101F28007B6AC3F101030233DB007A68134404338C
:101F38001946FFF795FE3B6A9B083B627B6A0133B3
:101F48007B627B6A012BDED900E000BF7B685B7A8D
:101F580043F00103DAB27B685A72B869FEF758F9A0
:101F6800FB69002B01D0FFF735FB00231846283703
:101F7800BD4680BDFC1300200414002080B584B049
:101F880000AF78607B685B7A03F00103002B02D115
:101F98004FF0FF3310E0FEF737F9F8607868FFF785
:101FA800DAFE7B685B7A23F00103DAB27B685A7247
:101FB800F868FEF72DF9002318461037BD4680BD96
:101FC80080B586B000AFF860B9607A60FEF71CF99A
:101FD8007861BB68052B3CD801A252F823F000BFFA
:101FE8000B20000801200008152000082520000803
:101FF8003520000851200008FB685A6A7B681A607F
:1020080028E07B681A68FB685A6223E0FB685B7A01
:1020180023F00203DAB2FB685A721BE0FB685B7AB2
:1020280043F00203DAB2FB685A7213E0FB685B7A8A
:1020380003F00103002B03D07B6801221A6009E03A
:102048007B6800221A6005E0FB689A6A7B681A6060
:1020580000E000BF7869FEF7DBF800231846183760
:10206800BD4680BD80B586B000AF3B1D1846FFF762
:10207800E6FDFEF7E5F97861FEF7C6F8386150E04D
:102088002F4B1B68143BFB60FB689B6A7A69D31A69
:102098006FF0004293424BD2F868FFF75CFEFB6892
:1020A8005B7A03F00203002B06D1FB685B7A23F00E
:1020B8000103DAB2FB685A72FB6803F114023B1D94
:1020C80011461846FFF7CCFDFB68DB69FA68126A0F
:1020D80010469847FEF7B4F978613B1D1846FFF79C
:1020E800F3FD0346002B1BD1FB6814331846FFF79A
:1020F800D0FDFB685B7A03F00203002B11D0FB686C
:102108005B7A03F00103002B0BD0FB685B7A23F0AA
:102118000103DAB2FB685A72F868FFF76DFE00E057
:1021280000BF0748FFF7D0FD0346002BA8D000E00A
:1021380000BF3869FEF76CF800BF1837BD4680BD90
:10214800FC13002080B582B000AF00237B6009E05B
:102158007B68DB00074A13441846FFF770FD7B686D
:1021680001337B607B68002BF2D000BF00BF0837CB
:10217800BD4680BDFC13002080B400AF00BFBD4643
:102188005DF8047B7047000080B489B000AFF86048
:10219800B9607A603B607B680433BB61BB6923F03C
:1021A8000703BB61BB69443BBB61BB697B6100231F
:1021B800FB6108E0FB699B007A691344154A1A60C1
:1021C800FB690133FB61FB69102BF3D9BA687B69A2
:1021D8005A627B6900229A627B690022DA627B6913
:1021E80000221A637B6900225A633A687B699A6302
:1021F800FA687B69DA637B694FF080721A647B69DD
:1022080000221A60BB6918462437BD465DF8047B76
:10221800704700BFEFBEADDE80B500AF2548FEF7C2
:10222800E1FF254B1B889BB219462448FEF7DAFFCD
:10223800214B1B889BB203F00103002B02D02048DE
:10224800FEF7D0FF1C4B1B889BB203F00203002B48
:1022580002D01C48FEF7C6FF174B1B889BB203F041
:102268000403002B02D01848FEF7BCFF124B1B8852
:102278009BB203F00803002B02D01448FEF7B2FF0C
:102288000D4B1B889BB203F48073002B02D01048BF
:10229800FEF7A8FF084B1B889BB203F40073002BC2
:1022A80002D00C48FEF79EFF0B48FEF79BFF00BFCD
:1022B80080BD00BFDC2D00082AED00E0EC2D0008F1
:1022C800042E0008102E00081C2E0008242E0008DA
:1022D8002C2E0008382E0008442E000880B500AFC8
:1022E8002648FEF77FFF264B1B78DBB219462548A8
:1022F800FEF778FF224B1B78DBB203F00103002BBB
:1023080002D02148FEF76EFF1D4B1B78DBB203F0AD
:102318000203002B02D01D48FEF764FF184B1B7800
:10232800DBB203F00403002B02D01948FEF75AFF72
:10233800134B1B78DBB203F00803002B02D01548BF
:10234800FEF750FF0E4B1B78DBB203F01003002B97
:1023580002D01148FEF746FF094B1B78DBB25BB28F
:10236800002B06DA0D4B1B6819460D48FEF73AFF9D
:1023780002E00C48FEF736FF00BF80BD482E00087B
:1023880029ED00E0542E00086C2E0008782E000875
:10239800842E0008942E0008A02E000838ED00E0D6
:1023A800A82E0008442E000880B500AF2148FEF78B
:1023B80019FF214B1B78DBB219462048FEF712FFA4
:1023C8001D4B1B78DBB203F00103002B02D01C4825
:1023D800FEF708FF184B1B78DBB203F00203002B53
:1023E80002D01848FEF7FEFE134B1B78DBB203F051
:1023F8000803002B02D01448FEF7F4FE0E4B1B789E
:10240800DBB203F01003002B02D01048FEF7EAFEFF
:10241800094B1B78DBB25BB2002B06DA0C4B1B684E
:1024280019460C48FEF7DEFE02E00B48FEF7DAFE1E
:1024380000BF80BDB82E000828ED00E0CC2E0008B3
:10244800E42E0008F02E0008FC2E0008082F0008D3
:1024580034ED00E0142F0008442E000880B500AFCA
:10246800164B1B6803F00203002B02D01448FEF73A
:10247800B9FE124B1B6803F08043002B14D0114B9C
:102488001B78DBB2002B01D0FFF728FF0E4B1B781F
:10249800DBB2002B01D0FFF787FF0C4B1B889BB2E8
:1024A800002B01D0FFF7B8FE044B1B68002B02DAA3
:1024B8000748FEF797FE00BF80BD00BF2CED00E087
:1024C800242F000829ED00E028ED00E02AED00E0C7
:1024D8003C2F000880B586B000AF78607B68283351
:1024E8007B617B6804333B61464B1B68002B07D03C
:1024F800444B1B6878699847F860FB68002B7DD0CF
:102508003B691B6C19464048FEF76CFE3B695B6AE9
:1025180019463E48FEF766FE3B699B6A19463C48E9
:10252800FEF760FE3B69DB6A19463A48FEF75AFE39
:102538003B691B6B19463848FEF754FE3B695B68DC
:1025480019463648FEF74EFE3B699B6819463448E3
:10255800FEF748FE3B69DB6819463248FEF742FE43
:102568003B691B6919463048FEF73CFE3B695B69CD
:1025780019462E48FEF736FE3B699B6919462C48DA
:10258800FEF730FE3B69DB6919462A48FEF72AFE4A
:102598003B691B6A19462848FEF724FE3B695B6BBA
:1025A80019462648FEF71EFE3B699B6B19462448D0
:1025B800FEF718FE3B69DB6B19462248FEF712FE50
:1025C8007B681B6803F00403002B07D0FFF772FA3F
:1025D800034619461C48FEF705FE02E01B48FEF7B5
:1025E80001FE7B681B6803F01003002B02D118481A
:1025F800FEF7F8FDFFF732FF00BFFDE700BF183711
:10260800BD4680BD141400204C2F00085C2F000824
:102618006C2F00087C2F00088C2F00089C2F0008C6
:10262800AC2F0008BC2F0008CC2F0008DC2F0008B6
:10263800EC2F0008FC2F00080C3000081C300008A4
:102648002C3000083C3000084C3000086C30000882
:102658008830000890B585B000AFF860B9607A603E
:102668003B60FB689B7E002B05D14FF0FF30FEF7E7
:1026780011F9002311E0FB685B6B002B08D0FB68A5
:102688005C6B3B687A68B968F868A047034604E061
:102698006FF00500FEF7FEF8002318461437BD4614
:1026A80090BD000080B483B000AF03463960FB7171
:1026B80097F90730002B0ADB3B68DAB20C4997F927
:1026C80007301201D2B20B4483F800230AE03B68BA
:1026D800DAB20849FB7903F00F03043B1201D2B2C6
:1026E8000B441A7600BF0C37BD465DF8047B704773
:1026F80000E100E000ED00E080B582B000AF786056
:102708007B68013BB3F1807F01D301230FE00A4AC4
:102718007B68013B53600F214FF0FF30FFF7C2FF8A
:10272800054B00229A60044B07221A6000231846C2
:102738000837BD4680BD00BF10E000E080B582B01C
:1027480000AF78607868FFF7D7FF03461846083768
:10275800BD4680BD80B400AF00BFFDE780B400AFC8
:1027680000BFFDE780B400AF00BFFDE780B400AF55
:1027780000BFFDE780B400AF00BFBD465DF8047B35
:102788007047000080B400AF064BD3F88830054A84
:1027980043F47003C2F8883000BFBD465DF8047B7F
:1027A800704700BF00ED00E080B487B000AF0023A1
:1027B8003B6100237B610223FB600023BB60022393
:1027C8007B60344B9B6803F00C033B613B69082B2F
:1027D80011D03B69082B44D83B69002B03D03B69D7
:1027E800042B04D03DE02C4B2C4A1A603DE02A4BC8
:1027F8002B4A1A6039E0274B5B689B0D03F00103F5
:10280800BB60244B5B6803F03F037B60BB68002B15
:102818000CD0234A7B68B2FBF3F31E4A5268920934
:10282800C2F3080202FB03F37B610BE01B4A7B68DF
:10283800B2FBF3F3174A52689209C2F3080202FB8B
:1028480003F37B61134B5B681B0C03F00303013339
:102858005B00FB607A69FB68B2FBF3F30E4A136016
:1028680003E00D4B0D4A1A6000BF0A4B9B681B0919
:1028780003F00F030B4AD35C3B61074B1A683B69B3
:1028880022FA03F3044A136000BF1C37BD465DF803
:10289800047B704700380240480000200024F40000
:1028A80000127A000834000880B483B000AF0346F1
:1028B800FB71FB79032B0AD0032B0ADC012B02D016
:1028C800022B02D005E0064B04E0064B02E0064B63
:1028D80000E0064B18460C37BD465DF8047B704790
:1028E800A8300008B4300008C4300008CC30000814
:1028F80080B582B000AF7860282200217868FDF7A3
:102908004DFD7B681B4A1A607B681B4A5A607B68CE
:102918001A4A9A607B68194ADA607B68174A1A6112
:102928007B68164A5A617B68154A9A617B6800225F
:102938001A777B6800225A777B6801229A777B682E
:102948000122DA777B68032283F820207B68032240
:1029580083F821207B68032283F822207B680322E6
:1029680083F823207B68032283F8242000BF0837DC
:10297800BD4680BDD8300008E4300008EC300008BF
:10298800F430000880B500AF0C48FFF7B1FF0B48E2
:1029980000F01CF9FDF754FD0346094A1360084B83
:1029A80000225A60064B00229A60054B0022DA602A
:1029B800034B00221A6100BF80BD00BF181400201D
:1029C80040140020F0B583B002AF3E4B1B683D4A6F
:1029D800526819463C48FEF705FC3A4B9B68194675
:1029E8003A48FEF7FFFB374BDB6819463848FEF7D5
:1029F800F9FB344B1B6919463648FEF7F3FB314B9C
:102A08005B6919463448FEF7EDFB2E4B9B69194666
:102A18003248FEF7E7FB2B4B1B7F1846FFF744FFB6
:102A28000446284B5B7F1846FFF73EFF0546254BBB
:102A38009B7F1846FFF738FF0646224BDB7F184678
:102A4800FFF732FF0346009333462A4621462448BF
:102A5800FEF7C8FB1B4B93F820301846FFF724FFFE
:102A68000446184B93F821301846FFF71DFF05461A
:102A7800144B93F822301846FFF716FF03462A46F0
:102A880021461848FEF7AEFB0E4B93F82330184644
:102A9800FFF70AFF04460B4B93F824301846FFF75C
:102AA80003FF03461A4621460F48FEF79BFB0F48D3
:102AB800FEF798FB0E48FEF795FB00BF0437BD46AE
:102AC800F0BD00BF181400200431000814310008BC
:102AD800283100083C3100085031000860310008F6
:102AE800703100089C310008CC310008E83100083A
:102AF8000032000880B500AF00F060F8FFF742FF31
:102B0800FFF760FF0E4B5B68184600F099F8FDF779
:102B180097FC03460A4A1360094B5B68084A126827
:102B280019460848FEF75EFB054B5B680133044A0B
:102B380053604FF47A70FFF718F800BFE2E700BF60
:102B4800401400207432000880B500AFFDF762FE23
:102B5800FDF782FCFDF774FE00BF80BD80B500AFB5
:102B6800FFF722FE064B1B68064AA2FB03239B09BC
:102B78001846FFF7E3FDFDF7F9FC00BF80BD00BF75
:102B880048000020D34D621080B483B000AF786055
:102B98007B684FF004001946ABBE00BF0C37BD463A
:102BA8005DF8047B704780B582B000AF78607868C4
:102BB800FFF7EAFF00BF0837BD4680BD80B400AF0D
:102BC80000BFBD465DF8047B7047000080B483B049
:102BD80000AF78607B68002B23D07B68144A9A602A
:102BE8007B68144ADA607B68134A1A617B68134A67
:102BF8005A617B6800221A777B68002283F82020BC
:102C08007B68002283F823207B68002283F8242035
:102C18007B68032283F821207B68032283F8222023
:102C280000E000BF0C37BD465DF8047B704700BF6D
:102C380098320008AC320008C4320008D0320008CC
:102C480080B483B000AF786000BF0C37BD465DF834
:102C5800047B704780B500AFFFF74CFF034618466A
:102C680080BD0000DFF834D00D480E490E4A00231D
:102C780002E0D458C4500433C4188C42F9D30B4A28
:102C88000B4C002301E013600432A242FBD3FFF790
:102C980079FDFDF75BFBFDF79DFC70470000022006
:102CA800000000204C0000202C34000850000020B8
:102CB80054140020FEE70000F8B500BFF8BC08BCBB
:102CC8009E467047F8B500BFF8BC08BC9E467047E2
:102CD8006D61696E000000007469646C65256400AC
:102CE8004F4B00004552524F520000004554494D89
:102CF8004F55540045525346554C4C004552534588
:102D080050545900454E4F4D454D0000454E4F53C8
:102D180059530000454255535900000045494F009A
:102D280045494E545250540045494E56414C0000B6
:102D380045554E4B4E4F57000A205C207C202F0AE9
:102D4800000000002D20535953555F41494F544FFF
:102D580053204F7065726174696E6720537973747C
:102D6800656D0A00202F207C205C20202020202553
:102D7800642E25642E2564206275696C6420257391
:102D88002025730A0000000030393A35393A3231CB
:102D9800000000004D61722032352032303236009A
:102DA8002032303036202D203230323220436F70BE
:102DB8007972696768742062792052542D54687258
:102DC800656164207465616D0A000000284E554CE9
:102DD8004C2900007573616765206661756C743AEB
:102DE8000A0000005343425F434653525F5546531F
:102DF800523A30782530325820000000554E44456C
:102E080046494E5354522000494E56535441544556
:102E180020000000494E5650432000004E4F4350BA
:102E280020000000554E414C49474E4544200000C3
:102E380044495642595A45524F2000000A000000A2
:102E4800627573206661756C743A0A005343425F79
:102E5800434653525F424653523A307825303258EF
:102E680020000000494255534552522000000000FE
:102E7800505245434953455252200000494D505243
:102E8800454349534552522000000000554E5354C3
:102E98004B4552522000000053544B4552522000DB
:102EA8005343422D3E424641523A253038580A0093
:102EB8006D656D206D616E616765206661756C7406
:102EC8003A0A00005343425F434653525F4D46530C
:102ED800523A3078253032582000000049414343A7
:102EE80056494F4C200000004441434356494F4C3B
:102EF800200000004D554E53544B455252200000BF
:102F08004D53544B45525220000000005343422D6C
:102F18003E4D4D41523A253038580A006661696C79
:102F2800656420766563746F722066657463680AE9
:102F3800000000006465627567206576656E740A36
:102F4800000000007073723A203078253038780A13
:102F5800000000007230303A203078253038780A86
:102F6800000000007230313A203078253038780A75
:102F7800000000007230323A203078253038780A64
:102F8800000000007230333A203078253038780A53
:102F9800000000007230343A203078253038780A42
:102FA800000000007230353A203078253038780A31
:102FB800000000007230363A203078253038780A20
:102FC800000000007230373A203078253038780A0F
:102FD800000000007230383A203078253038780AFE
:102FE800000000007230393A203078253038780AED
:102FF800000000007231303A203078253038780AE5
:10300800000000007231313A203078253038780AD3
:10301800000000007231323A203078253038780AC2
:1030280000000000206C723A203078253038780A89
:10303800000000002070633A203078253038780A84
:103048000000000068617264206661756C74206F0E
:103058006E207468726561643A2025730D0A0D0A42
:103068000000000068617264206661756C74206FEE
:103078006E2068616E646C65720D0A0D0A000000AE
:1030880046505520616374697665210D0A00000079
:1030980073687574646F776E2E2E2E0A0000000018
:1030A800617661696C61626C6500000065787065C5
:1030B80072696D656E74616C00000000706C616E01
:1030C8006E656400756E617661696C61626C65003D
:1030D8004D6169785079204E616E6F00302E312E27
:1030E80030000000756E6B6E6F776E0052542D5471
:1030F8006872656164204E616E6F00000A5B424F22
:103108004F545D2025732025730A00005B424F4F02
:10311800545D20426F6172643A2025730A000000F2
:103128005B424F4F545D2052756E74696D653A204D
:1031380025730A005B424F4F545D20436F6E736FD7
:103148006C653A2025730A005B424F4F545D20435B
:1031580050553A2025730A005B424F4F545D204F6B
:10316800533A2025730A00005B4341505D206C658B
:10317800643D257320686561703D2573207368651B
:103188006C6C3D2573206465766963653D25730A1B
:10319800000000005B4341505D2073746F726167EB
:1031A800653D257320707974686F6E5F766D3D2577
:1031B80073206D6F64656C5F72756E74696D653DC3
:1031C80025730A005B4341505D2063616D65726140
:1031D8003D257320646973706C61793D25730A001D
:1031E8005B4D454D5D20686561702064697361625F
:1031F8006C65640A000000005B4E4558545D206908
:103208006E74656772617465204D6963726F507979
:1032180074686F6E20564D2C2056465320616E649C
:10322800206D6F64656C206C6F61646572206F6ED1
:103238002052542D546872656164204E616E6F0A85
:10324800000000005B53544154455D20757074695B
:103258006D655F6D733D256C75206865617274627C
:103268006561743D256C750A000000005B41505093
:103278005D206865617274626561743D256C7520B6
:10328800757074696D655F6D733D256C750A000016
:103298006F6C696D65782D73746D33322D683430B9
:1032A8003500000071656D752F6F6C696D65782D3F
:1032B80073746D33322D68343035000073656D6971
:1032C800686F7374696E670061726D2D636F7274D5
:1032D80065782D6D34000000000001000200010037
:1032E80003000100020001000400010002000100C7
:1032F80003000100020001000500010002000100B6
:1033080003000100020001000400010002000100A6
:103318000300010002000100060001000200010094
:103328000300010002000100040001000200010086
:103338000300010002000100050001000200010075
:103348000300010002000100040001000200010066
:103358000300010002000100070001000200010053
:103368000300010002000100040001000200010046
:103378000300010002000100050001000200010035
:103388000300010002000100040001000200010026
:103398000300010002000100060001000200010014
:1033A8000300010002000100040001000200010006
:1033B80003000100020001000500010002000100F5
:1033C80003000100020001000400010002000100E6
:1033D8000300010002000100303132333435363742
:1033E8003839414243444546000000003031323309
:1033F8003435363738396162636465660000000029
:10340800000000000000000001020304060708098C
:04341800450500085E
:04341C00550500084A
:043420006505000836
:04342400F1010008AA
:04342800C9010008CE
:10342C000000002000000020010000000C00002023
:10343C000C00002078000000020000001C0000209E
:10344C001C00002020000000090000002C000020BF
:10345C002C000020400000000A0000003C0000206E
:0C346C003C0000202C0000000024F400B4
:04000005080005DD0D
:00000001FF
