:020000040800F2
:10000000000002204904000895040008FD020008D1
:1000100095040008950400089504000800000000FD
:10002000000000000000000000000000950400082F
:1000300095040008000000003F0200089504000835
:10004000950400089504000895040008950400082C
:10005000950400089504000895040008950400081C
:10006000950400089504000895040008950400080C
:1000700095040008950400089504000895040008FC
:1000800095040008950400089504000895040008EC
:1000900095040008950400089504000895040008DC
:1000A00095040008950400089504000895040008CC
:1000B00095040008950400089504000895040008BC
:1000C00095040008950400089504000895040008AC
:1000D000950400089504000895040008950400089C
:1000E000950400089504000895040008950400088C
:1000F000950400089504000895040008950400087C
:10010000950400089504000895040008950400086B
:10011000950400089504000895040008950400085B
:10012000950400089504000895040008950400084B
:10013000950400089504000895040008950400083B
:10014000950400089504000895040008950400082B
:10015000950400089504000895040008950400081B
:10016000950400089504000895040008950400080B
:10017000950400089504000895040008000000009C
:08018000950400089504000835
:100188000348044B834202D0034B03B1184770471E
:100198000000002000000020000000000548064B79
:1001A8001B1AD90F01EBA301491002D0034B03B16D
:1001B80018477047000000200000002000000000E1
:1001C80010B5064C237843B9FFF7DAFF044B13B197
:1001D8000448AFF300800123237010BD0000002005
:1001E800000000002C21000808B5044B1BB104498D
:1001F8000448AFF30080BDE80840CFE700000000E6
:10020800040000202C210008EFF3108072B670471C
:1002180080F310887047464A1368012B04D04FF0CA
:1002280001031360434A1060434A116043484FF08A
:10023800805101607047EFF3108272B63C48016844
:1002480051B34FF0000101603A48016891B1EFF3F2
:1002580009811EF0100F08BF21ED108B21E9F00F66
:100268004FF000041EF0100F08BF012441F8044DA0
:100278000068016030490968096808C9B1E8F00FE9
:10028800002B18BFB1EC108B81F309884EF0100ECB
:10029800002B18BF2EF0100E82F310884EF0040EBB
:1002A800704725490860EFF3148222F0040282F3B4
:1002B800148820494FF0000008601D494FF00100E4
:1002C80008601F481F49D0F8002041EA0201016078
:1002D8001A484FF0805101601B480068006800BF51
:1002E80080F3088861B662B6BFF34F8FBFF36F8F94
:1002F800704700BFEFF308801EF0040F01D0EFF342
:10030800098020E9F00F40F804ED40F804ED1EF0F4
:10031800040F02D080F3098801E080F3088800B553
:1003280001F004FE5DF804EB4EF0040E7047000087
:1003380088020020800200208402002004ED00E0F2
:1003480020ED00E00000FFFF08ED00E070B50F4B66
:100358000F4DAB42A3EB050607D0B610002455F8A5
:10036800043B01349847A642F9D801F0DBFE094D59
:10037800094B5E1BAB424FEAA60606D0002455F88F
:10038800043B01349847A642F9D870BD6828000894
:1003980068280008682800086C280008830730B51A
:1003A80047D0541E002A3ED0CAB2034601E0013CA1
:1003B80039D303F8012B9D07F9D1032C2CD9CDB2E1
:1003C80005EB05250F2C05EB054535D9A4F11002E1
:1003D80022F00F0C03F1100EE6444FEA121C1A46E5
:1003E800C2E90055C2E9025510327245F8D10CF144
:1003F800010214F00C0F03EB021204F00F0C13D0DF
:10040800ACF1040323F003030433134442F8045B00
:100418009342FBD10CF003042CB1C9B21C4403F87D
:10042800011BA342FBD130BD64461346002CF4D116
:10043800F9E703461446C0E71A46A446E0E700BFBA
:10044800DFF830D0002103E00B4B5B5843500431F8
:100458000A480B4B42189A42F6D30A4A02E0002394
:1004680042F8043B084B9A42F9D3FFF76FFF00F0BC
:10047800DFF9704700000220702800080000002003
:10048800000000200000002094020020FEE7000089
:1004980080B483B000AF0346FB71FB79032B0AD00D
:1004A800032B0ADC012B02D0022B02D005E0064BFD
:1004B80004E0064B02E0064B00E0064B18460C37FA
:1004C800BD465DF8047B70474421000850210008B0
:1004D800602100086821000880B582B000AF78600C
:1004E800282200217868FFF759FF7B681B4A1A60A9
:1004F8007B681B4A5A607B681A4A9A607B68194A6B
:10050800DA607B68174A1A617B68164A5A617B6809
:10051800154A9A617B6800221A777B6800225A770D
:100528007B6801229A777B680122DA777B6803224D
:1005380083F820207B68032283F821207B6803222C
:1005480083F822207B68032283F823207B68032218
:1005580083F8242000BF0837BD4680BD74210008F9
:1005680080210008882100089021000880B500AF8C
:100578000C48FFF7B1FF0B4800F012F900F030FB10
:100588000346094A1360084B00225A60064B0022B2
:100598009A60054B0022DA60034B00221A6100BF03
:1005A80080BD00BF1C00002044000020F0B583B0CF
:1005B80002AF3E4B1B683D4A526819463C4800F062
:1005C8002DFF3A4B9B6819463A4800F027FF374BF6
:1005D800DB681946384800F021FF344B1B6919467F
:1005E800364800F01BFF314B5B691946344800F070
:1005F80015FF2E4B9B691946324800F00FFF2B4B15
:100608001B7F1846FFF744FF0446284B5B7F1846BC
:10061800FFF73EFF0546254B9B7F1846FFF738FF3F
:100628000646224BDB7F1846FFF732FF034600934E
:1006380033462A462146244800F0F0FE1B4B93F827
:1006480020301846FFF724FF0446184B93F8213052
:100658001846FFF71DFF0546144B93F8223018463D
:10066800FFF716FF03462A462146184800F0D6FE33
:100678000E4B93F823301846FFF70AFF04460B4B3E
:1006880093F824301846FFF703FF03461A4621461D
:100698000F4800F0C3FE0F4800F0C0FE0E4800F0FF
:1006A800BDFE00BF0437BD46F0BD00BF1C000020E2
:1006B800A0210008B0210008C4210008D8210008A2
:1006C800EC210008FC2100080C2200083822000850
:1006D80068220008842200089C22000880B500AF28
:1006E80000F058F8FFF742FFFFF760FF0E4B5B681A
:1006F800184600F08FF800F073FA03460A4A1360B0
:10070800094B5B68084A12681946084800F086FEDB
:10071800054B5B680133044A53604FF47A7001F06B
:10072800DEF800BFE2E700BF440000201023000805
:1007380080B586B000AF00233B60144B1B6B134A97
:1007480043F001031363114B1B6B03F001033B6080
:100758003B683B1D00221A605A609A60DA601A6191
:1007680020237B600123BB600023FB6000233B61E7
:100778003B1D1946064800F063F800222021044872
:1007880000F0FAF900BF1837BD4680BD00380240B6
:100798000000024080B500AFFFF7CAFF00BF80BD70
:1007A80080B483B000AF78607B68002B23D07B686F
:1007B800144A9A607B68144ADA607B68134A1A61A3
:1007C8007B68134A5A617B6801221A777B68032287
:1007D80083F820207B68032283F823207B68032288
:1007E80083F824207B68032283F821207B68032276
:1007F80083F8222000E000BF0C37BD465DF8047B7B
:10080800704700BF34230008482300085C23000811
:100818007023000880B582B000AF786020210348BB
:1008280000F0C3F900BF0837BD4680BD0000024094
:1008380080B500AFFFF752FF0346184680BD0000A1
:1008480080B489B000AF7860396000237B610023F1
:100858003B610023BB610023FB616BE10122FB6963
:1008680002FA03F37B613B681B687A6913403B61BA
:100878003A697B699A4240F05A813B685B6803F0A9
:100888000303012B05D03B685B6803F00303022BCD
:1008980030D17B689B68BB61FB695B00032202FA6D
:1008A80003F3DB43BA691340BB613B68DA68FB6951
:1008B8005B0002FA03F3BA691343BB617B68BA6948
:1008C8009A607B685B68BB610122FB6902FA03F3EB
:1008D800DB43BA691340BB613B685B681B0903F0E3
:1008E8000102FB6902FA03F3BA691343BB617B682F
:1008F800BA695A603B685B6803F00303032B17D09F
:100908007B68DB68BB61FB695B00032202FA03F3C7
:10091800DB43BA691340BB613B689A68FB695B00BB
:1009280002FA03F3BA691343BB617B68BA69DA60F8
:100938003B685B6803F00303022B23D1FB69DA08E9
:100948007B68083253F82230BB61FB6903F0070368
:100958009B000F2202FA03F3DB43BA691340BB6121
:100968003B681A69FB6903F007039B0002FA03F36B
:10097800BA691343BB61FB69DA087B680832B96955
:1009880043F822107B681B68BB61FB695B0003228C
:1009980002FA03F3DB43BA691340BB613B685B6847
:1009A80003F00302FB695B0002FA03F3BA6913431D
:1009B800BB617B68BA691A603B685B6803F44033C3
:1009C800002B00F0B4800023FB60604B5B6C5F4A37
:1009D80043F4804353645D4B5B6C03F48043FB60DA
:1009E800FB685B4AFB699B08023352F82330BB6102
:1009F800FB6903F003039B000F2202FA03F3DB43B6
:100A0800BA691340BB617B68524A93422BD07B681A
:100A1800514A934225D07B68504A93421FD07B6845
:100A28004F4A934219D07B684E4A934213D07B6851
:100A38004D4A93420DD07B684C4A934207D07B685D
:100A48004B4A934201D107230EE008230CE006230A
:100A58000AE0052308E0042306E0032304E0022358
:100A680002E0012300E00023FA6902F00302920089
:100A78009340BA691343BB613549FB699B0802334C
:100A8800BA6941F823203B4B9B68BB613B69DB4358
:100A9800BA691340BB613B685B6803F48013002BA1
:100AA80003D0BA693B691343BB61324ABB6993609F
:100AB800304BDB68BB613B69DB43BA691340BB6100
:100AC8003B685B6803F40013002B03D0BA693B69E9
:100AD8001343BB61274ABB69D360264B5B68BB6184
:100AE8003B69DB43BA691340BB613B685B6803F44D
:100AF8000033002B03D0BA693B691343BB611D4A1D
:100B0800BB6953601B4B1B68BB613B69DB43BA691C
:100B18001340BB613B685B6803F48033002B03D050
:100B2800BA693B691343BB61124ABB691360FB692D
:100B38000133FB61FB690F2B7FF690AE00BF00BF4E
:100B48002437BD465DF8047B704700BF003802407B
:100B58000038014000000240000402400008024042
:100B6800000C02400010024000140240001802402D
:100B7800001C0240003C014080B483B000AF7860A4
:100B88000B467B8013467B707B78002B03D07A88DA
:100B98007B689A6103E07B881A047B689A6100BFCE
:100BA8000C37BD465DF8047B704780B485B000AF54
:100BB80078600B467B807B685B69FB607A88FB68A2
:100BC80013401A04FB68D9437B880B401A437B689F
:100BD8009A6100BF1437BD465DF8047B704700007A
:100BE80080B400AF034B1B681846BD465DF8047B14
:100BF800704700BF5800002080B485B000AF78600F
:100C08007B68002B03DA4FF0FF33FB6027E07B683B
:100C1800164A82FB03129211DB17D31A4FF47A7229
:100C280002FB03F3FB607A68104B83FB02139911F4
:100C3800D317CB1A4FF47A7101FB03F3D31A4FF48D
:100C48007A7202FB03F303F2E733084A82FB0312CA
:100C58009211DB17D31A1A46FB681344FB60FB6832
:100C680018461437BD465DF8047B7047D34D6210B3
:100C780080B584B000AF786001F040FA0346002BDD
:100C880003D00A4A7B6813600CE000F0EDFDF860C1
:100C9800FB68002B03D1054A7B68136002E0FB6800
:100CA8007A681A631037BD4680BD00BF5C0000201B
:100CB80080B485B000AF786039603B680A2B17D1E3
:100CC8007B681B681946134BA3FB0123DA081346FC
:100CD8009B0013445B00CA1AFA607B681B681A46BB
:100CE8000C4BA3FB0223DB081A467B681A600AE058
:100CF8007B681B6803F00F03FB607B681B681B099C
:100D08001A467B681A60FB6818461437BD465DF8BA
:100D1800047B7047CDCCCCCC80B485B000AF786074
:100D28000023FB600EE0FA6813469B0013445B0047
:100D380018467B681B68591C7A6811601B78034445
:100D4800303BFB607B681B681B78303B092BEAD97A
:100D5800FB6818461437BD465DF8047B70470000F1
:100D680080B58EB000AFF860B9607A603B607B6C8C
:100D7800BB623B6CFB62BB6C03F04003002B01D0F1
:100D8800744B00E0744B7B62BB6C03F01003002BC8
:100D980003D0BB6C23F00103BB64BB6C03F00103FD
:100DA800002B01D0302300E0202387F823300023D4
:100DB80087F83730BB6C03F00203002B1AD07B682E
:100DC800002B06DA2D2387F837307B685B427B607F
:100DD80010E0BB6C03F00403002B03D02B2387F82F
:100DE800373007E0BB6C03F00803002B02D0202348
:100DF80087F8373000233B637B68002B19D13B6BA6
:100E08005A1C3A6338333B44302203F8282C13E049
:100E18003B1D39681846FFF74BFF03461A467B6AA5
:100E28001A443B6B591C3963127838333B4403F836
:100E3800282C7B68002BEBD13A6B7B6C9A4201DD46
:100E48003B6B7B64FA6A7B6CD31AFB62BB6C03F066
:100E58001103002B19D197F83730002B10D0FB6AFB
:100E6800002B0DDDFB6A013BFB6209E0FA68BB68F9
:100E78009A4202D2FB6820221A70FB680133FB6099
:100E8800FB6A5A1EFA62002BF0DC97F83730002B09
:100E98000DD0FA68BB689A4203D2FB6897F83720EE
:100EA8001A70FB6A013BFB62FB680133FB60BB6C99
:100EB80003F01003002B1BD10AE0FA68BB689A42C2
:100EC80003D2FB6897F823201A70FB680133FB6094
:100ED800FB6A5A1EFA62002BEFDC09E0FA68BB686D
:100EE8009A4202D2FB6830221A70FB680133FB6019
:100EF8007B6C5A1E7A643A6B9A42EFDB0DE0FA6813
:100F0800BB689A4206D207F110023B6B13441A7869
:100F1800FB681A70FB680133FB603B6B5A1E3A632F
:100F2800002B0DDDBB6A002BE9D109E0FA68BB682C
:100F38009A4202D2FB6820221A70FB680133FB60D8
:100F4800FB6A5A1EFA62002BF0DCFB681846383739
:100F5800BD4680BD402800085428000880B592B0DE
:100F680004AFF860B9607A603B60FB68BB62FA68FE
:100F7800BB6813447B627A6AFB689A4280F02682D7
:100F88004FF0FF337B627A6AFB68D31ABB601DE2BD
:100F98007B681B78252B0BD0BA6A7B6A9A4203D2EE
:100FA8007B681A78BB6A1A70BB6A0133BB620AE2B3
:100FB8000023BB777B6801337B607B681B782D2B14
:100FC80004D1BB7F43F01003BB77F3E77B681B7842
:100FD8002B2B04D1BB7F43F00403BB77EAE77B6884
:100FE8001B78202B04D1BB7F43F00803BB77E1E7D4
:100FF8007B681B78232B04D1BB7F43F02003BB778E
:10100800D8E77B681B78302B04D1BB7F43F0010302
:10101800BB77CFE700BF4FF0FF33BB617B681B781E
:10102800303B092B05D83B1D1846FFF775FEB86104
:1010380015E07B681B782A2B11D17B6801337B6014
:101048003B681A1D3A601B68BB61BB69002B06DA56
:10105800BB695B42BB61BB7F43F01003BB774FF0BA
:10106800FF337B617B681B782E2B1ED17B68013395
:101078007B607B681B78303B092B05D83B1D1846E5
:10108800FFF74AFE78610BE07B681B782A2B07D1B3
:101098007B6801337B603B681A1D3A601B687B6183
:1010A8007B69002B01DA00237B6100237B777B6857
:1010B8001B78682B03D07B681B786C2B05D17B6869
:1010C8001B787B777B6801337B600A23FB777B681F
:1010D8001B78252B00F00881252BC0F21F81782B67
:1010E80000F31C81582BC0F21981583B202B00F2C9
:1010F800158101A252F823F00D13000825130008EA
:1011080025130008251300082513000825130008D7
:1011180025130008251300082513000825130008C7
:1011280025130008851100081B1300082513000863
:101138002513000825130008251300081B130008B1
:101148002513000825130008251300082513000897
:101158002513000807130008B91200082513000812
:1011680025130008F311000825130008611300086F
:10117800251300082513000815130008BB7F03F08A
:101188001003002B10D109E0BA6A7B6A9A4202D296
:10119800BB6A20221A70BB6A0133BB62BB69013B80
:1011A800BB61BB69002BEFDC3B681A1D3A601B680A
:1011B800FB74BA6A7B6A9A4202D2BB6AFA7C1A70DA
:1011C800BB6A0133BB6209E0BA6A7B6A9A4202D2FF
:1011D800BB6A20221A70BB6A0133BB62BB69013B40
:1011E800BB61BB69002BEFDCEDE03B681A1D3A6080
:1011F8001B683B623B6A002B01D1824B3B62002398
:10120800FB6202E0FB6A0133FB62FA6ABB699A423D
:1012180005D0FB6A3A6A13441B78002BF2D17B692C
:10122800002B05DDFA6A7B699A4201DD7B69FB6266
:10123800BB7F03F01003002B10D109E0BA6A7B6A68
:101248009A4202D2BB6A20221A70BB6A0133BB627F
:10125800BB695A1EBA61FA6A9A42EFDB00233B6304
:1012680010E0BA6A7B6A9A4203D23B6A1A78BB6A70
:101278001A70BB6A0133BB623B6A01333B623B6B4A
:1012880001333B633A6BFB6A9A42EADB09E0BA6ACC
:101298007B6A9A4202D2BB6A20221A70BB6A013367
:1012A800BB62BB695A1EBA61FA6A9A42EFDB8AE0EE
:1012B800BB69B3F1FF3F05D10823BB61BB7F43F096
:1012C8000103BB773B681A1D3A601B681A46BB7F4F
:1012D80002937B690193BB6900931023796AB86A0A
:1012E800FFF73EFDB8626EE0BA6A7B6A9A4202D2A4
:1012F800BB6A25221A70BB6A0133BB6263E008230C
:10130800FB772AE0BB7F43F04003BB771023FB77D2
:1013180023E0BB7F43F00203BB771DE0BA6A7B6A18
:101328009A4202D2BB6A25221A70BB6A0133BB6299
:101338007B681B78002B0BD0BA6A7B6A9A4203D26F
:101348007B681A78BB6A1A70BB6A0133BB623AE0E1
:101358007B68013B7B6036E000BF7B7F6C2B09D14B
:101368003B681A1D3A601B687B63BB7F03F002036E
:10137800002B1AE07B7F682B0ED13B681A1D3A6060
:101388001B689BB27B63BB7F03F00203002B0CD06E
:101398007B6B1BB27B6308E03B681A1D3A601B68D5
:1013A8007B63BB7F03F00203002B7A6BF97FBB7F63
:1013B80002937B690193BB6900930B46796AB86A0B
:1013C800FFF7CEFCB8627B6801337B607B681B78D3
:1013D800002B7FF4DDADBB68002B0BD0BA6A7B6AAB
:1013E8009A4203D2BB6A00221A7003E07B6A013B6F
:1013F80000221A70BA6AFB68D31A18463837BD46F5
:1014080080BD00BF6C24000880B483B000AF786052
:1014180000BF0C37BD465DF8047B70470FB480B53C
:1014280082B000AF07F114033B603B683A69FF21C3
:101438001048FFF793FD03467B607B68FF2B01D9BB
:10144800FF237B600C4B1B68002B03D10948FFF777
:10145800DBFF06E0084B18687B68064A002100F0AD
:1014680025FE7B6818460837BD46BDE8804004B0B5
:10147800704700BF640000206000002080B483B083
:1014880000AF78607B68002B01D1002326E07B68E1
:10149800DBB2002B05D07B68DBB2134AD35C013387
:1014A8001CE07B6803F47F43002B06D07B681B128B
:1014B800DBB20D4AD35C093310E07B6803F47F0389
:1014C800002B06D07B681B14DBB2074AD35C1133B0
:1014D80004E07B681B0E044AD35C193318460C37AA
:1014E800BD465DF8047B70474027000880B483B090
:1014F80000AF786039607B681B683A685A607B681F
:101508001A683B681A607B683A681A603B687A68B0
:101518005A6000BF0C37BD465DF8047B704780B445
:1015280083B000AF786039607B685B683A681A609E
:101538007B685A683B685A607B683A685A603B68BF
:101548007A681A6000BF0C37BD465DF8047B7047A7
:1015580080B483B000AF78607B681B687A68526893
:101568005A607B685B687A6812681A607B687A6878
:101578005A607B685A687B681A6000BF0C37BD46A2
:101588005DF8047B704780B483B000AF78607B68F7
:101598001B687A689A420CBF01230023DBB2184605
:1015A8000C37BD465DF8047B7047000080B584B0F9
:1015B80000AF78600A4B1B681846FFF75FFF0346C9
:1015C800013BFB60074AFB6852F83330143BBB60B1
:1015D8007B68FA681A60BB6818461037BD4680BD3C
:1015E800640200206401002080B586B000AFFEF7D9
:1015F8000BFEF860524BB3F90030002B40F0988096
:10160800504B1B68002B00F0938000233B613B1D6F
:101618001846FFF7CBFF78614B4B1B6893F83430C3
:1016280003F00703032B2CD1474B1B6893F8353085
:101638001A467B689A4203D2434B1B687B6115E0CC
:10164800414B1B6893F835301A467B689A420BD198
:101658003D4B1B6893F8343003F00803002B03D18B
:10166800394B1B687B6101E001233B61364B1B68EA
:1016780093F83420344B1B6822F00802D2B283F866
:101688003420314B1B687A699A423CD07B68DAB2C5
:101698002E4B1A702C4B1B68BB602B4A7B6913605E
:1016A8003B69002B02D0B86800F054F8786900F064
:1016B800AFF87B6993F834305BB223F007035BB271
:1016C80043F003035BB2DAB27B6983F83420204B22
:1016D8001B78DBB2002B0CD1BB681C331A467B6924
:1016E8001C3319461046FEF796FDF868FEF790FD84
:1016F80022E0BB681C331A467B691C331946104626
:10170800FEF789FD14E0104B1B68184600F080F8BE
:101718000D4B1B6893F834305BB223F007035BB2C0
:1017280043F003035AB2084B1B68D2B283F8342043
:10173800F868FEF76DFD00BF1837BD4680BD00BFD5
:1017480068020020640200206C0200207002002061
:101758009002002080B584B000AF7860FEF754FD99
:10176800F860284B1B687A689A420ED17B6893F818
:1017780034305BB223F007035BB243F003035BB280
:10178800DAB27B6883F8342034E07B6893F834302D
:101798005BB223F007035BB243F001035BB2DAB23A
:1017A8007B6883F834207B6893F8343003F00803AF
:1017B800002B0CD07B6893F83530DB00124A1A44B2
:1017C8007B68143319461046FFF7A9FE0BE07B68C7
:1017D80093F83530DB000C4A1A447B6814331946F9
:1017E8001046FFF783FE7B689A6B084B1B68134310
:1017F800064A1360F868FEF70BFD00BF1037BD46B8
:1018080080BD00BF6C02002064010020640200203B
:1018180080B584B000AF7860FEF7F6FCF8607B68AE
:1018280014331846FFF794FE7B6893F83530DB00D5
:101838000B4A13441846FFF7A6FE0346002B07D0B1
:101848007B689B6BDA43074B1B681340054A1360A0
:10185800F868FEF7DDFC00BF1037BD4680BD00BF4D
:10186800640100206402002080B400AF034B1B68B1
:101878001846BD465DF8047B704700BF6C02002027
:1018880080B584B000AF7860FFF7EEFFF860FEF730
:10189800BBFCB860FB6800221A63F86800F02FF8F8
:1018A800FB6844333A1D0021184600F08FF9FB68A5
:1018B8004433184600F0A6F8B868FEF7A9FCFFF70D
:1018C80093FEFB681B6B13F1020F02D1FB68002229
:1018D8001A63FB681B6B18461037BD4680BD80B580
:1018E80084B000AF78607868FFF786F9F860F86828
:1018F800FFF7C6FF034618461037BD4680BD80B5C2
:1019080084B000AF78607B6893F8343003F0070345
:10191800FB60FB68012B05D0FB68032B02D04FF05E
:10192800FF331CE0FEF770FCB8607868FFF770FFC3
:101938007B6893F834305BB223F007035BB243F063
:1019480002035BB2DAB27B6883F834207B684433E5
:10195800184600F019F9B868FEF75AFC0023184633
:101968001037BD4680BD80B483B000AF7860396061
:101978007B681B683A685A607B681A683B681A601B
:101988007B683A681A603B687A685A6000BF0C370F
:10199800BD465DF8047B704780B483B000AF7860C3
:1019A8007B681B687A6852685A607B685B687A68EB
:1019B80012681A607B687A685A607B685A687B6824
:1019C8001A6000BF0C37BD465DF8047B704780B5D0
:1019D80084B000AF78600023FB600BE0FB68023343
:1019E800DB007A68134404331846FFF7D5FFFB6819
:1019F8000133FB60FB68002BF0DD00BF00BF103730
:101A0800BD4680BD80B58AB000AF78600023FB6119
:101A1800FEF7FAFBB8617868FFF7D9FF7B685B7A55
:101A280023F00103DAB27B685A72FFF7D9F802464D
:101A38007B685B6A1A447B689A62514B7B617B695D
:101A4800BB6000237B624FE07B6A9B0028333B44EA
:101A580053F8203C1B683B617B6ADB0014335B4214
:101A68003A691344FB60FB689A6A7B689B6A9A42EE
:101A780009D0FB689A6A7B689B6AD31A6FF00042A8
:101A880093421CD300E000BF7B6A9B0028333B4491
:101A980053F8203C1A687B6A9B0028333B4443F880
:101AA800202C7B6A9B0028333B4453F8202C7B6A0C
:101AB800DB0079690B445B689A42C5D100E000BF3E
:101AC8007B6A002B0DD07B6A9B0028333B4453F87C
:101AD800202C7B6A013308329B0028333B4443F8AF
:101AE800202C7B6A01337B627B6A002BD9D0254B83
:101AF8001B680133234A1360224B1B683B62BA6898
:101B08007B68143319461046FFF72DFF02237B62CA
:101B18001DE03B6A03F00303002B1CD17B6AC3F171
:101B280001039B0028333B4453F8200C7B6AC3F124
:101B380001030233DB007A68134404331946FFF7C4
:101B480012FF3B6A9B083B627B6A01337B627B6ABC
:101B5800012BDED900E000BF7B685B7A43F001030C
:101B6800DAB27B685A72B869FEF752FBFB69002B40
:101B780001D0FFF739FD002318462837BD4680BD40
:101B8800740200207C02002080B584B000AF786029
:101B98007B685B7A03F00103002B02D14FF0FF331F
:101BA80010E0FEF731FBF8607868FFF710FF7B68FC
:101BB8005B7A23F00103DAB27B685A72F868FEF7A1
:101BC80027FB002318461037BD4680BD80B586B078
:101BD80000AFF860B9607A60FEF716FB7861BB6801
:101BE800052B3CD801A252F823F000BF171C0008AF
:101BF8000D1C0008211C0008311C0008411C0008AD
:101C08005D1C0008FB685A6A7B681A6028E07B68DC
:101C18001A68FB685A6223E0FB685B7A23F00203C8
:101C2800DAB2FB685A721BE0FB685B7A43F0020386
:101C3800DAB2FB685A7213E0FB685B7A03F00103BF
:101C4800002B03D07B6801221A6009E07B68002220
:101C58001A6005E0FB689A6A7B681A6000E000BFBA
:101C68007869FEF7D5FA002318461837BD4680BDB7
:101C780080B500AF2548FFF7D1FB254B1B889BB2E9
:101C880019462448FFF7CAFB214B1B889BB203F077
:101C98000103002B02D02048FFF7C0FB1C4B1B8818
:101CA8009BB203F00203002B02D01C48FFF7B6FBDF
:101CB800174B1B889BB203F00403002B02D0184873
:101CC800FFF7ACFB124B1B889BB203F00803002BF9
:101CD80002D01448FFF7A2FB0D4B1B889BB203F4FC
:101CE8008073002B02D01048FFF798FB084B1B8825
:101CF8009BB203F40073002B02D00C48FFF78EFB55
:101D08000B48FFF78BFB00BF80BD00BF74240008A1
:101D18002AED00E0842400089C240008A824000878
:101D2800B4240008BC240008C4240008D0240008F7
:101D3800DC24000880B500AF2648FFF76FFB264B70
:101D48001B78DBB219462548FFF768FB224B1B7846
:101D5800DBB203F00103002B02D02148FFF75EFB42
:101D68001D4B1B78DBB203F00203002B02D01D4889
:101D7800FFF754FB184B1B78DBB203F00403002B6E
:101D880002D01948FFF74AFB134B1B78DBB203F06C
:101D98000803002B02D01548FFF740FB0E4B1B78B9
:101DA800DBB203F01003002B02D01148FFF736FB1B
:101DB800094B1B78DBB25BB2002B06DA0D4B1B68B4
:101DC80019460D48FFF72AFB02E00C48FFF726FBEF
:101DD80000BF80BDE024000829ED00E0EC240008E5
:101DE80004250008102500081C2500082C250008DB
:101DF8003825000838ED00E040250008DC240008FC
:101E080080B500AF2148FFF709FB214B1B78DBB2F7
:101E180019462048FFF702FB1D4B1B78DBB203F085
:101E28000103002B02D01C48FFF7F8FA184B1B7867
:101E3800DBB203F00203002B02D01848FFF7EEFADA
:101E4800134B1B78DBB203F00803002B02D01448B5
:101E5800FFF7E4FA0E4B1B78DBB203F01003002BFC
:101E680002D01048FFF7DAFA094B1B78DBB25BB2F5
:101E7800002B06DA0C4B1B6819460C48FFF7CEFA04
:101E880002E00B48FFF7CAFA00BF80BD50250008E2
:101E980028ED00E0642500087C2500088825000856
:101EA80094250008A025000834ED00E0AC250008C2
:101EB800DC24000880B500AF164B1B6803F0020352
:101EC800002B02D01448FFF7A9FA124B1B6803F045
:101ED8008043002B14D0114B1B78DBB2002B01D0B0
:101EE800FFF728FF0E4B1B78DBB2002B01D0FFF762
:101EF80087FF0C4B1B889BB2002B01D0FFF7B8FE65
:101F0800044B1B68002B02DA0748FFF787FA00BF6B
:101F180080BD00BF2CED00E0BC25000829ED00E0E5
:101F280028ED00E02AED00E0D425000880B586B051
:101F380000AF78607B6828337B617B6804333B6142
:101F4800464B1B68002B07D0444B1B6878699847A1
:101F5800F860FB68002B7DD03B691B6C1946404834
:101F6800FFF75CFA3B695B6A19463E48FFF756FA89
:101F78003B699B6A19463C48FFF750FA3B69DB6AA4
:101F880019463A48FFF74AFA3B691B6B1946384825
:101F9800FFF744FA3B695B6819463648FFF73EFA93
:101FA8003B699B6819463448FFF738FA3B69DB6898
:101FB80019463248FFF732FA3B691B69194630481F
:101FC800FFF72CFA3B695B6919462E48FFF726FA9A
:101FD8003B699B6919462C48FFF720FA3B69DB6986
:101FE80019462A48FFF71AFA3B691B6A1946284816
:101FF800FFF714FA3B695B6B19462648FFF70EFAA0
:102008003B699B6B19462448FFF708FA3B69DB6B71
:1020180019462248FFF702FA7B681B6803F004039D
:10202800002B07D0FFF720FC034619461C48FFF792
:10203800F5F902E01B48FFF7F1F97B681B6803F02C
:102048001003002B02D11848FFF7E8F9FFF732FF19
:1020580000BFFDE700BF1837BD4680BD8C020020D9
:10206800E4250008F42500080426000814260008C2
:1020780024260008342600084426000854260008B0
:1020880064260008742600088426000894260008A0
:10209800A4260008B4260008C4260008D426000890
:1020A800E4260008042700082027000890B585B01A
:1020B80000AFF860B9607A603B60FB689B7E002BDC
:1020C80005D14FF0FF30FEF7D3FD002311E0FB6888
:1020D8005B6B002B08D0FB685C6B3B687A68B9685F
:1020E800F868A047034604E06FF00500FEF7C0FD5E
:1020F800002318461437BD4690BD000080B582B055
:1021080000AFFEF781F87860054B1B78FB707868A4
:10211800FEF77EF8FB7818460837BD4680BD00BF3D
:1021280090020020F8B500BFF8BC08BC9E46704776
:0C213800F8B500BFF8BC08BC9E4670471C
:10214400617661696C61626C650000006578706538
:1021540072696D656E74616C00000000706C616E74
:102164006E656400756E617661696C61626C6500B0
:102174004D6169785079204E616E6F00302E312E9A
:1021840030000000756E6B6E6F776E0052542D54E4
:102194006872656164204E616E6F00000A5B424F95
:1021A4004F545D2025732025730A00005B424F4F76
:1021B400545D20426F6172643A2025730A00000066
:1021C4005B424F4F545D2052756E74696D653A20C1
:1021D40025730A005B424F4F545D20436F6E736F4B
:1021E4006C653A2025730A005B424F4F545D2043CF
:1021F40050553A2025730A005B424F4F545D204FDF
:10220400533A2025730A00005B4341505D206C65FE
:10221400643D257320686561703D2573207368658E
:102224006C6C3D2573206465766963653D25730A8E
:10223400000000005B4341505D2073746F7261675E
:10224400653D257320707974686F6E5F766D3D25EA
:1022540073206D6F64656C5F72756E74696D653D36
:1022640025730A005B4341505D2063616D657261B3
:102274003D257320646973706C61793D25730A0090
:102284005B4D454D5D2068656170206469736162D2
:102294006C65640A000000005B4E4558545D20697B
:1022A4006E74656772617465204D6963726F5079ED
:1022B40074686F6E20564D2C2056465320616E6410
:1022C400206D6F64656C206C6F61646572206F6E45
:1022D4002052542D546872656164204E616E6F0AF9
:1022E400000000005B53544154455D2075707469CF
:1022F4006D655F6D733D256C7520686561727462F0
:102304006561743D256C750A000000005B41505006
:102314005D206865617274626561743D256C752029
:10232400757074696D655F6D733D256C750A000089
:1023340073746D3332663430375F6E75636C656FFA
:102344000000000072747468726561642F73746DA8
:1023540033326634303700005553415254322040F2
:102364002031313532303020384E310061726D2DDC
:10237400636F727465782D6D340000004F4B00005C
:102384004552524F520000004554494D4F55540098
:1023940045525346554C4C004552534550545900F0
:1023A400454E4F4D454D0000454E4F535953000087
:1023B400454255535900000045494F0045494E5484
:1023C4005250540045494E56414C000045554E4B21
:1023D4004E4F57000A205C207C202F0A000000008A
:1023E4002D20535953555F41494F544F53204F703B
:1023F40065726174696E672053797374656D0A0040
:10240400202F207C205C202020202025642E256481
:102414002E2564206275696C642025732025730A57
:102424000000000030393A35393A323100000000FA
:102434004D61722032352032303236002032303055
:1024440036202D203230323220436F707972696722
:1024540068742062792052542D5468726561642036
:102464007465616D0A000000284E554C4C2900002B
:102474007573616765206661756C743A0A000000C3
:102484005343425F434653525F554653523A307862
:102494002530325820000000554E444546494E53DD
:1024A40054522000494E56535441544520000000D4
:1024B400494E5650432000004E4F43502000000028
:1024C400554E414C49474E4544200000444956422C
:1024D400595A45524F2000000A00000062757320CB
:1024E4006661756C743A0A005343425F4346535223
:1024F4005F424653523A307825303258200000006B
:102504004942555345525220000000005052454361
:102514004953455252200000494D505245434953B6
:102524004552522000000000554E53544B45525220
:102534002000000053544B45525220005343422D77
:102544003E424641523A253038580A006D656D20A6
:102554006D616E616765206661756C743A0A00008E
:102564005343425F434653525F4D4653523A307889
:1025740025303258200000004941434356494F4C0E
:10258400200000004441434356494F4C20000000C2
:102594004D554E53544B4552522000004D53544B0D
:1025A40045525220000000005343422D3E4D4D4100
:1025B400523A253038580A006661696C65642076A1
:1025C4006563746F722066657463680A00000000B6
:1025D4006465627567206576656E740A00000000A4
:1025E4007073723A203078253038780A0000000081
:1025F4007230303A203078253038780A00000000F4
:102604007230313A203078253038780A00000000E2
:102614007230323A203078253038780A00000000D1
:102624007230333A203078253038780A00000000C0
:102634007230343A203078253038780A00000000AF
:102644007230353A203078253038780A000000009E
:102654007230363A203078253038780A000000008D
:102664007230373A203078253038780A000000007C
:102674007230383A203078253038780A000000006B
:102684007230393A203078253038780A000000005A
:102694007231303A203078253038780A0000000052
:1026A4007231313A203078253038780A0000000041
:1026B4007231323A203078253038780A0000000030
:1026C400206C723A203078253038780A00000000F7
:1026D4002070633A203078253038780A00000000F2
:1026E40068617264206661756C74206F6E20746812
:1026F400726561643A2025730D0A0D0A000000001A
:1027040068617264206661756C74206F6E20686104
:102714006E646C65720D0A0D0A0000004650552067
:10272400616374697665210D0A000000736875742D
:10273400646F776E2E2E2E0A000000000000010048
:102744000200010003000100020001000400010076
:102754000200010003000100020001000500010065
:102764000200010003000100020001000400010056
:102774000200010003000100020001000600010044
:102784000200010003000100020001000400010036
:102794000200010003000100020001000500010025
:1027A4000200010003000100020001000400010016
:1027B4000200010003000100020001000700010003
:1027C40002000100030001000200010004000100F6
:1027D40002000100030001000200010005000100E5
:1027E40002000100030001000200010004000100D6
:1027F40002000100030001000200010006000100C4
:1028040002000100030001000200010004000100B5
:1028140002000100030001000200010005000100A4
:102824000200010003000100020001000400010095
:1028340002000100030001000200010030313233C4
:1028440034353637383941424344454600000000A8
:102854003031323334353637383961626364656612
:042864000000000070
:04286800F101000872
:04286C00C901000896
:0400000508000449A2
:00000001FF
